:020000040800F2
:100000000000082055180108CD150108CF1501087A
:10001000D1150108D3150108D5150108000000000D
:10002000000000000000000000000000516D010809
:10003000D715010800000000F16D0108556E010898
:10004000A5180108A5180108A5180108A518010898
:10005000A5180108A5180108A5180108A518010888
:10006000A5180108A5180108A5180108A518010878
:10007000D9150108A5180108E9150108A5180108F6
:10008000A5180108A5180108A5180108A518010858
:10009000A5180108A5180108A5180108A518010848
:1000A000A5180108F9150108A5180108A5180108E7
:1000B000A5180108A5180108A5180108A518010828
:1000C000A5180108A5180108A5180108A518010818
:1000D000A5180108A5180108A518010809160108A6
:1000E000A5180108A5180108A5180108A5180108F8
:1000F000A5180108A5180108A5180108A5180108E8
:10010000A5180108A5180108A5180108A5180108D7
:10011000A5180108A5180108A5180108A5180108C7
:10012000A5180108A5180108A5180108A5180108B7
:10013000A5180108A5180108A5180108A5180108A7
:10014000A5180108A5180108A51801081916010825
:10015000A5180108A5180108A5180108A518010887
:10016000A5180108A5180108A5180108A518010877
:10017000A5180108A5180108A5180108000000002D
:10018000A5180108A5180108A5180108A518010857
:10019000A5180108A5180108A5180108A518010847
:1001A000A5180108A5180108A5180108A518010837
:1001B000A5180108A5180108A5180108A518010827
:1001C000A5180108A518010800000000A5180108DD
:1001D000A5180108A5180108A5180108A518010807
:1001E000A5180108A5180108A5180108A5180108F7
:0801F000A5180108A51801087B
:100200000348044B834202D0034B03B118477047A5
:100210005C0B00205C0B0020000000000548064934
:100220000B1AD90F01EBA301491002D0034B03B104
:10023000184770475C0B00205C0B0020000000009A
:1002400010B5064C237843B9FFF7DAFF044B13B11E
:100250000448AFF300800123237010BD600B002021
:1002600000000000ECEC010808B5044B1BB1044988
:100270000448AFF30080BDE80840CFE7000000006D
:10028000640B0020ECEC0108014B1868704700BFBC
:1002900008ED01082DE9F04788B0109E002E6BD0C4
:1002A00006F1500A05460F4690465046994600F022
:1002B000D9FC80F00104E4B2002C5DD1002D5BD0AC
:1002C0002B6823B16424204608B0BDE8F087384687
:1002D00002F08AFB002854D0B8F1000F4CD0B9FAD4
:1002E00089F35B09B9F1000F46D007AA0793CDE95E
:1002F000033306F15803059293E807008DE80700E1
:10030000494638469AE80C0002F046FC00284FD1D6
:10031000336DC820316E98472860002850D0384689
:1003200002F0A8FB06F164034146079A00933346A6
:100330002C6800F0C5FD2B68C4F8C400D3F8C400D5
:1003400070B303F1700100F0A3FE2B680446D0B92E
:1003500096F848203146184683F8B820702207F0F6
:10036000D7FB3A68C0F8C0200798736D316E984784
:10037000204608B0BDE8F0870B24204608B0BDE851
:10038000F087C8249FE7CBB1D3F8C42042B13846E8
:1003900002F070FB2B68D3F8C41000F091FE2B68BC
:1003A0001846726D316E0124904700232B60DBE705
:1003B000672807D0692805D00A2801D00124D3E78F
:1003C0000A24D1E76724CFE770B500B30446084696
:1003D0000D4602F001FBF0B12368ABB128465E6D1B
:1003E0001D6E02F047FBC8B12368D3F8C41000F0BB
:1003F00067FE0346294620681D1E18BF0125B04729
:1004000000232360284670BD1D46284670BD4FF46A
:100410009675284670BDC825284670BD0B25F1E7A6
:1004200070B5144D88B0044650221349284607F091
:100430006FFB02A800F008FC0DF1080C05F1500E4E
:100440006E46BCE80F00AEE80F00DCF80030304626
:10045000CEF8003000F090FC05F16403702296E8BD
:10046000030083E803002946204607F051FB20469D
:1004700008B070BD800B002010ED0108E0B10368EA
:1004800070B50446ABB11646D3F8C4208AB1D3F890
:10049000C0000D4601F002FE58B12368D3F8C40035
:1004A00038B13246294600F007FEBDE8704001F041
:1004B000BFBD4FF4967070BD4FF49670704700BF8B
:1004C000E8B138B503680446A3B1D3F8C4208AB1B3
:1004D000D3F8C0000D4601F0E1FD58B12368D3F810
:1004E000C40038B14DB1294600F0E8FDBDE8384000
:1004F00001F09EBD4FF4967038BD0B2038BD4FF40F
:1005000096707047F8B1036870B50446B3B11646EB
:10051000D3F8C42092B1D3F8C0000D4601F0BEFD5F
:1005200060B12368D3F8C40040B155B132462946C2
:1005300000F058FC003818BF012070BD4FF49670D1
:1005400070BD0B2070BD4FF49670704700B3036808
:1005500070B50446BBB11646D3F8C4209AB1D3F89F
:10056000C0000D4601F09AFD68B12368D3F8C400BD
:1005700048B15DB13246294600F094FC10B10A281A
:1005800018BF012070BD4FF4967070BD0B2070BD78
:100590004FF49670704700BFF8B1036870B5044619
:1005A000B3B11646D3F8C42092B1D3F8C0000D46BB
:1005B00001F074FD60B12368D3F8C40040B155B1B7
:1005C0003246294600F070FC003818BF012070BD8B
:1005D0004FF4967070BD0B2070BD4FF4967070474D
:1005E000C0B1036810B504468BB1D3F8C42072B112
:1005F000D3F8C00001F052FD48B12368D3F8C4001D
:1006000028B100F043FD003818BF012010BD4FF4A1
:10061000967010BD4FF49670704700BF002855D0FB
:1006200070B51D46036886B00446B3B31646D3F8CA
:10063000C42092B3D3F8C00001F030FD68B3236842
:10064000D3F8C4404CB3012E75F1000329DB3046CA
:10065000294621A3D3E9002306F0EAFC02460B4613
:1006600030462946CDE902231BA3D3E9002306F037
:10067000DFFCCDE9042306AB13E9030002AB8DE8F0
:10068000030020460CCB00F011FC40B1022806D03C
:10069000032818BF012006B070BD4FF4967006B055
:1006A00070BD56EA05030AD00DA1D1E900010EA3E1
:1006B000D3E90023CDE90201CDE90423DBE70022E1
:1006C0000023CDE90223CDE90423D4E74FF496704B
:1006D000704700BFAFF3008000CA9A3B00000000E3
:1006E000047DC12502000000FFD7F23200000000A7
:1006F00028B1006818B1D0F8C40000B18068704714
:1007000030B1006820B1D0F8C430002B08BF002001
:10071000704700BF18B1006808B1D0F8C400704736
:1007200040B1006830B1D0F8C43013B1D0F8C00087
:1007300070471846704700BFA0B1036810B5044663
:1007400073B1D3F8C4205AB1D3F8C00001F0A6FCAD
:1007500030B12368D3F8C400003818BF012010BDA1
:10076000002010BD0020704730B1006820B1D0F8E3
:10077000C400003818BF0120704700BF38B5C8B1A9
:1007800003680446B3B1D3F8C4209AB1D3F8C000CB
:100790000D4601F083FC68B12368D3F8C40048B16A
:1007A00065B1294600F070FC034628B1BDE8384029
:1007B00001F03EBC4FF49673184638BD0B23184623
:1007C00038BD00BF38B1006828B1D0F8C4300BB1D3
:1007D000703070471846704720B3036810B5044660
:1007E00082B0E3B1D3F8C420CAB1D3F8C00001F09D
:1007F00055FCA0B12368D3F8C43083B100230DF1B8
:1008000007008DF8073002F05BF910B99DF807304A
:100810002BB92368D3F8C430187D02B010BD002076
:1008200002B010BD002070472DE9F04186B0BBB387
:100830000646A8B31C460F46904601F0D1FD04F1D0
:100840000C05059095E803008DE8030005A894E8E1
:100850000E0001F0C7FD0546E0B902AD284601F0E3
:10086000FBFB334605AA95E8030086E803004146F2
:10087000384601F091FC0546B8B9224606F10C0154
:100880000320B46002F04AFC054670B905A801F0E7
:100890000FFE08B100F062FA284606B0BDE8F0810C
:1008A0000B25284606B0BDE8F08100F057FA05A8F0
:1008B00001F0FEFD0028EFD0ECE700BF2DE9F0438A
:1008C00083B00A9F002B18BF002F27D0044628B3FF
:1008D000E9461D460E469046484601F0BDFB2A46B5
:1008E000234699E8030084E803004146304601F0BE
:1008F00053FC054660B93A4604F10C010320A76099
:1009000002F00CFC054618B9284603B0BDE8F08398
:1009100000F024FA284603B0BDE8F0830B252846F2
:1009200003B0BDE8F08300BF38B520B304460C30F7
:1009300002F07CFC054648B9204601F033FD68B959
:10094000204601F017FC88B9284638BD00F006FAA9
:100950002046012501F026FD0028F1D000F0FEF927
:100960002046012501F006FC0028EDD0012500F00D
:10097000F5F9284638BD0B25284638BD002B18BF91
:10098000002A2DE9F04316460CBF01220022A1B037
:10099000002908BF42F0010222BB044610B30DF14A
:1009A00010081F460D460DF11809404601F098FE4B
:1009B00098E8030084E80300484602F0A1F84046A6
:1009C00001F08EFECDF800903B46324698E80300D9
:1009D00084E803002946204601F08CFE30B921B09E
:1009E000BDE8F0830B2021B0BDE8F083039000F058
:1009F000B5F900F0B3F9039821B0BDE8F08300BF6A
:100A00002DE9F04387B00E9E002E18BF002B0CBFBF
:100A10004FF0010C4FF0000C002A08BF4CF0010C05
:100A2000002908BF4CF0010CBCF1000F18D104469E
:100A3000B0B10DF110090D4698461746484601F031
:100A40004FFE009643463A4699E8030084E80300C7
:100A50002946204601F04EFE30B907B0BDE8F083CC
:100A60000B2007B0BDE8F083039000F077F90398FE
:100A700007B0BDE8F08300BF002B18BF002A2DE9A6
:100A8000F04116460CBF01220022A0B0002908BF89
:100A900042F001021ABB044608B30DF110081F46CC
:100AA0000D46FFF7F1FB20604046FFF7B9FC5022EE
:100AB0000D49404607F02CF83B4632462946204671
:100AC000CDF80080FFF7E6FB10B920B0BDE8F0815B
:100AD000039000F043F9039820B0BDE8F0810B20AB
:100AE00020B0BDE8F08100BF60ED0108002B18BF09
:100AF000002A2DE9F04116460CBF01220022A0B0C9
:100B0000002908BF42F001021ABB044608B30DF1E8
:100B100010081F460D46FFF7B7FB20604046FFF761
:100B20007FFC50220D49404606F0F2FF3B4632461C
:100B300029462046CDF80080FFF7ACFB10B920B065
:100B4000BDE8F081039000F009F9039820B0BDE8FA
:100B5000F0810B2020B0BDE8F08100BFB0ED0108AE
:100B60002DE9F043A1B0289E002E18BF002B0CBF2A
:100B70004FF0010C4FF0000C002A08BF4CF0010CA4
:100B8000002908BF4CF0010CBCF1000F1DD1044638
:100B9000D8B10DF110091F4690460D46FFF774FBC2
:100BA00020604846FFF73CFC31465022484606F09C
:100BB000AFFF3B46424629462046CDF80090FFF75E
:100BC00069FB30B921B0BDE8F0830B2021B0BDE84E
:100BD000F083039000F0C2F8039821B0BDE8F083E1
:100BE00006F0FEBB07F0CEB806F0E0BC06F0D6BCBF
:100BF00010B5054C864684460FCCACE80F00236840
:100C00007046CCF8003010BD00EE0108A8B10268B3
:100C1000A2B14168A1B110B4C46864B1806838B1B0
:100C2000084B1A600022C3E901100120C3E9034206
:100C30005DF8044B70472046FAE77047104670474E
:100C4000084670470000002010B5054C86468446D3
:100C50000FCCACE80F0023687046CCF8003010BD14
:100C60000000002058B1036843B1436833B1C36842
:100C700023B18068003818BF0120704718467047BC
:100C800070B51546A2B1146854B1546844B1D46823
:100C900034B1946824B112690646A047044608B1ED
:100CA000204670BD30466B6829699847204670BD64
:100CB0001446204670BD00BF84B038B5114C04AD59
:100CC00085E80F00257825B10020BDE8384004B044
:100CD000704704A8FFF7C6FF70B10023012100226E
:100CE00028462581257621706576A576C4E90423FA
:100CF000BDE8384004B07047BDE838400B2004B070
:100D0000704700BFF00B002058B1B1FA81F35B09C6
:100D100039B1044901200B814B760B768876C1E905
:100D200004237047F00B0020014B987E704700BFF2
:100D3000F00B002000487047F80B0020054B9A7E0E
:100D40002AB15A7E0AB901225A76187E7047024BA0
:100D500018787047F00B002080F60108054B002240
:100D6000002000211A815A761A769A76C3E9040186
:100D7000704700BFF00B0020002202600271704734
:100D800070B4DDE9035662B15BB155B14EB1064CAA
:100D9000207000206661C4E90112C4E9033570BC0B
:100DA00070470B2070BC70470C0C002070B4059C81
:100DB000DDE903657AB173B1002E18BF002D0AD0AA
:100DC0004CB1646B207400206562C4E90512C4E96B
:100DD000073670BC70470B2070BC7047C96F1AF0A3
:100DE000D7B900BF002853D070B50D468EB000298A
:100DF0004BD00446006801F0A9F8002845D0666889
:100E0000002E42D0B469284623699847F3690590BB
:100E100013B105A898470598D6F880301B69009053
:100E200003F52870726906ABB16F1BF005F8D8B1F5
:100E3000A36806A928469847336A04460BB106A85A
:100E4000984796F87A30012BD6F8803022D018696E
:100E5000F16F00F528701AF09BF92040C4B284F0BD
:100E60000100C0B20EB070BDD6F880301869059B85
:100E7000029600F528700093094B019306AB726946
:100E8000B16F1BF009F80028D2D101200EB070BD5F
:100E900001207047186900F5287019F0F9FDDEE7A8
:100EA000DD0D0008032070470320704782B0032047
:100EB0008DE80C0002B07047032070470320704794
:100EC0002DE9F04F87B0002800F0D2800E460029AF
:100ED00000F0CE800446006815461F4601F036F843
:100EE00080F00100C0B2002840F0C280002D00F068
:100EF000BF802B78002B00F0BB80002F00F0B88063
:100F00005E48D4F8049004F093F8002800F0B08014
:100F1000846804F19C0AC4F8884004F0ADF8C4F871
:100F20008400C4F88CA0284607F00AFD013004F1C3
:100F300084083C2800F28F802B46514A3C215046C1
:100F400007F06EFA4FF47A7339465022E36704F1E2
:100F50002800C4F8809006F0DBFD3B7A3046494912
:100F6000022BD9F810300CBFD3F87C33D3F8783388
:100F7000A3670023C4E9073300F0F6FF00286AD016
:100F80004268A261002A66D029463B46484604F0E2
:100F900043FB6062002862D0D9F810300321062597
:100FA00003F58053B3F89805421CA3F8982519F06F
:100FB0000BFCD4F88020D9F810302061D3F88433AA
:100FC0001069009500F5287019682269D9F8143065
:100FD00019F038FA0246D9F81000D0F88C33D0F85E
:100FE000841300F0B9FBB0B3D9F8103005210DF12E
:100FF000100A03F58053B3F89A05421CA3F89A250A
:1010000019F0E2FBD4F88030394660611E69504621
:10101000D9F81030D4F824B006F52876D3F88473C4
:1010200000F0B6FB03959AE8030001903046ADF856
:101030000810DBF8103000933968D4E9043219F055
:1010400061FA0246D9F81000D0F88C33D0F8841336
:1010500000F082FB70B9606A08B100F05BFA4046AC
:101060004FF0000800F0FEF9404607B0BDE8F08FF1
:101070004FF00008404607B0BDE8F08F480C002054
:10108000B8F6010884F60108032070470320704772
:1010900078B110B5B1FA81F4640941B143685022C6
:1010A000084603F1280106F033FD204610BD0B2051
:1010B00010BD0B20704700BF03207047032070470E
:1010C0002DE9F04128B1044600680D4600F03EFFCE
:1010D00018B901242046BDE8F0816368002BF8D0E0
:1010E000B5FA85F46409002DF3D0286800F02EFFCE
:1010F0000028EED06E68002EEBD0706AD6F88070B3
:1011000004F0DAFAD6F8803072691869D0F88833BA
:1011100000F52870196819F0E1F8D6F8803080469B
:1011200032691869D0F8883300F52870196819F009
:10113000D5F8064638694246D0F89033D0F888137F
:1011400000F00AFB3F6932460646D7F8903338462E
:10115000D7F8881300F000FB26B118B1284600F03C
:1011600081F9B7E70224F9E7E2B12DE9F041057B07
:101170000646ADB9C82317460C46A846836040F220
:101180000113C0E90055838101352146304603F043
:101190005FFFAF42A46004F1C80404F8BC8CF3D133
:1011A000BDE8F081704700BFE2B12DE9F041057B59
:1011B0000646ADB9C82317460C46A846836040F2E0
:1011C0000113C0E90055838101352146304603F003
:1011D0003FFFAF42A46004F1C80404F8BC8CF3D113
:1011E000BDE8F081704700BFE2B12DE9F041057B19
:1011F0000646ADB9D82317460C46A846836040F290
:101200000113C0E90055838101352146304603F0C2
:101210001FFFAF42A46004F1D80404F8CC8CF3D1D2
:10122000BDE8F081704700BFE2B12DE9F041057BD8
:101230000646ADB9D82317460C46A846836040F24F
:101240000113C0E90055838101352146304603F082
:10125000FFFEAF42A46004F1D80404F8CC8CF3D1B3
:10126000BDE8F081704700BFE2B12DE9F041057B98
:101270000646ADB9A42317460C46A846836040F243
:101280000113C0E90055838101352146304603F042
:10129000DFFEAF42A46004F1A40404F8988CF3D1FB
:1012A000BDE8F081704700BFEAB12DE9F843057B46
:1012B0000646B5B941F2A85840F2011317460C464C
:1012C000A946C0F808808381C0E900550135214650
:1012D000304603F0BDFEAF42A46084F80C90444455
:1012E000F4D1BDE8F8837047E2B12DE9F041057B08
:1012F0000646ADB91C2317460C46A846836040F24B
:101300000113C0E90055838101352146304603F0C1
:101310009FFEAF42A46004F11C0404F8108CF3D1CA
:10132000BDE8F081704700BFEAB12DE9F041057BCF
:101330000646B5B94FF4046317460C46A8468360C9
:1013400040F20113C0E90055838101352146304642
:1013500003F07EFEAF42A46084F80C8004F50464C0
:10136000F3D1BDE8F0817047E2B12DE9F041057B92
:101370000646ADB92C2317460C46A846836040F2BA
:101380000113C0E90055838101352146304603F041
:101390005FFEAF42A46004F12C0404F8208CF3D16A
:1013A000BDE8F081704700BFE2B12DE9F041057B57
:1013B0000646ADB91C2317460C46A846836040F28A
:1013C0000113C0E90055838101352146304603F001
:1013D0003FFEAF42A46004F11C0404F8108CF3D16A
:1013E000BDE8F081704700BFE2B12DE9F041057B17
:1013F0000646ADB9202317460C46A846836040F246
:101400000113C0E90055838101352146304603F0C0
:101410001FFEAF42A46004F1200404F8148CF3D141
:10142000BDE8F081704700BF0146014803F010BEDF
:10143000280C002038B50446006828B1074B19680D
:1014400007F0A2F840B92060616829B1002504487E
:101450000D6103F0FDFD656038BD00BF88F2010835
:10146000380C002010B50446006828B1064B1968F6
:1014700007F08AF838B92060616821B1034803F0A9
:10148000E7FD0023636010BD88F20108480C0020CE
:1014900010B50446006828B1064B196807F074F8C7
:1014A00038B92060616821B1034803F0D1FD002301
:1014B000636010BD88F20108580C002010B5044686
:1014C000006828B1064B196807F05EF838B920604B
:1014D000616821B1034803F0BBFD0023636010BDC8
:1014E00088F20108680C002010B50446006828B195
:1014F000064B196807F048F838B92060616821B1D7
:10150000034803F0A5FD0023636010BD88F20108C5
:10151000780C002010B504460348214603F098FDDE
:101520000023A36110BD00BF880C0020084B1B6F77
:101530005BB100219A685B68D2F81428904208BF1A
:101540000131002BF6D1084670471946084670470E
:10155000280C002082B02B4930B50D6F03AC84E815
:101560000C001C46002D4BD02B4600219A685B686E
:10157000D2F81428904208BF0131002BF6D19DF813
:101580000C30022B29D020D88C4228D8B4FA84F20F
:10159000520924B3DDB14FF0FF3C6FF0004401E08D
:1015A0006D68ADB1AB68D3F814188842F8D1D3F8A0
:1015B000181803F50263614553F8043C73EB040EFD
:1015C000EEDA8C461C462A46EAE7032BDCD00022E2
:1015D0001046BDE8304002B070478C4205D90A4839
:1015E000BDE8304002B003F023BDB4FA84F25209E2
:1015F000002CEDD10448BDE8304002B003F018BD26
:101600002946BCE7280C0020980C0020124B1B6FC9
:1016100030B5F3B14FF0FF3E6FF0004C002401E015
:101620005B68A3B19A68D2F814188842F8D1D2F84E
:10163000181802F50262714552F8042C72EB0C0581
:10164000EEDA1C465B688E469446002BEAD12046B3
:1016500030BD1C46204630BD280C00203C4B2DE9F7
:10166000F04F1F6F2DED068B8DB004F075FC002F31
:101670005DD0B84681468A4604ACD8F8085095F843
:101680002038042B9FED2C8B9FED2DAB9FED2E9BD7
:101690003FD0052B44D0032B3BD08DED048B8DED3B
:1016A00006AB08AB8DED088B8DED0A8B0FCB8DE86B
:1016B0000F0094E80F0003F07FF918B18DED049B43
:1016C0008DED068BD5F8186805F5026555F8047C94
:1016D000D8F804B094E80F0003F0C4F9301847EBD1
:1016E0000101484571EB0A0305DB55E902239145E9
:1016F0007AEB030303DA4146164803F0A9FCBBF179
:10170000000F14D0D846D8F8085095F82038042B8C
:10171000BFD1D5F8143840330FCB84E80F00C0E7B1
:10172000D5F8143848330FCB84E80F00B9E70DB073
:10173000BDEC068BBDE8F08F00000000000000004B
:1017400001000000000000001E000000000000007A
:10175000280C0020980C002010B58C7886B0012C45
:10176000ADF80E200CD0012419460DF10E020DF13A
:101770001703009400F5287019F02EFD06B010BD77
:1017800000F5287019F084F9204606B010BD00BF9E
:101790004A7A91F808C0022A18BF00220270ACF100
:1017A0000202B2FA82F2520942700A788988A2F1E2
:1017B00002028180B2FA82F252098270704700BF41
:1017C00010B51C4610460B46044A214606F028FE7A
:1017D000002802DA8442D8BF002010BD14EE0108B0
:1017E0002DE9F041144E82B01D460746331F0846CE
:1017F00090462946114ACDE9007606F011FE06F121
:1018000008030C3604460D4A4046294600970196C7
:1018100006F006FE002CA8BFA542CCBF0124002480
:1018200005DD0028A8BF8542CCBF01240024204646
:1018300002B0BDE8F08100BF5CEE0108B4F601081B
:101840002DE9F04F064687B01C4683680D461746C3
:101850009847F368064698470023D0F804B07268AA
:101860002B701368002B3FD0DFF890904946DFF8CB
:1018700094802846DFF890A0CDF81480526800913B
:101880002146CDF80880CDF804A0CDE903921A4A8C
:1018900006F0C6FD0023A0426FEA00063B70DBF8AD
:1018A00000304FEAD676ACBF002501250BB3134AB2
:1018B000CDF814802E40DBF8041038460491214600
:1018C000CDE9002ACDE902890B4A06F0A9FD0028DE
:1018D000B4BF002606F00106A042ACBF002006F00F
:1018E000010007B0BDE8F08F054BDFF810901946F6
:1018F000BDE7034B1A46DBE7ACF60108A8F6010882
:1019000080050208BCF60108C0F601082DE9F04F79
:101910001C46AFB09B6890460D4607469847E36863
:101920000446DFF8249198470023626889F8003064
:101930001368D0F804B0002B7ED0414E3146414CA4
:10194000DFF82CA1059452683F480091642102946D
:10195000CDF804A0CDE903623C4A06F061FD002306
:1019600089F86430DBF80030002B62D0344A0594EB
:10197000DBF80410364804916421CDE90246CDE934
:10198000002A324A1BAC06F04BFD389B93F84820E6
:1019900000238DF86C308DF8243072B92D4E49211A
:1019A0002D4A2046331F0095019606F039FD482840
:1019B0002FD900202FB0BDE8F08F2B46274A4921B0
:1019C000204606F02DFD4828F3D80DF1240A2B46B9
:1019D000224A4721504606F023FD4828E9D81C4BEF
:1019E0001F4A03931F4BCDF8089001950097CDE94E
:1019F000044A1D4CB8F1000F08BF2346DDE9390148
:101A0000069306F00DFD0028D4DA3A9B8342D0DD20
:101A1000D0E706F10C030DF1240A0F4A4721019388
:101A2000504606F10803009506F0FAFC4628D6D980
:101A3000BFE70E4B1A469AE70C4B014E19467EE75C
:101A4000A8F60108BCF60108E4550020ACF6010830
:101A5000485600205CEE0108B4F60108B8F601080B
:101A600070EE0108C4F60108D0F6010880050208EE
:101A7000C0F60108002301200B70704700230120ED
:101A80000B7070470346084610B51446997882B02B
:101A90001B88064A0091214606F0C2FC002802DAA3
:101AA0008442D8BF002002B010BD00BF20EF010863
:101AB000002330B50B7087B003681446BBB10E4AE3
:101AC0001546009503920D4D426808460C49049254
:101AD0000591029121460B4A019506F0A1FC0028D0
:101AE000A8BF8442CCBF0120002007B030BD064B08
:101AF000014A1D46E5E700BFA8F60108C0F6010847
:101B0000BCF60108ACF601088005020830B51446A1
:101B100083B00546074B084A08460095214606F063
:101B20007FFC0028A8BF8442CCBF0120002003B066
:101B300030BD00BF28EF0108D8F60108F0B597B016
:101B400007460E4615461C4606F0FAFE3C2802D90A
:101B5000002017B0F0BD224B002283F8C820336864
:101B6000002B30D01F4A11460091039272681E4923
:101B700004921E4A05910192029164211C4A1D485B
:101B800006F04EFC6328E3D895F8483006ADF3B96B
:101B9000194B4021194A2846009706F041FC0028BD
:101BA00002DA1C9B8342D3DD124E2B46144A204698
:101BB0001C99009606F034FC0028CADA1C9B984257
:101BC000A8BF0020C5E70F4B064A1946CCE73B46A5
:101BD0000D4A4021284606F023FC0028E1DBE3E71C
:101BE000E4550020A8F60108BCF60108C0F601087B
:101BF000ACF60108AC56002028EF0108D8F6010821
:101C00002CEF010880050208B8F60108F0B52A4F4C
:101C10001C46002397B006460D4687F82C31136802
:101C2000002B45D02549084603910090526824496D
:101C30000492244A0591019202916421224A234888
:101C400006F0EEFB632812D8002294F8483006AF65
:101C50008DF8182073B91E4B40211E4A3846009556
:101C600006F0DEFB00280DDA1D9B98420ADB0020FF
:101C700017B0F0BD2B46184A4021384606F0D0FB7D
:101C80000028F1DB154932460097154B207A0F4C9E
:101C9000022818BF0B460194DDE91C0106F0C0FBC9
:101CA0000028E5DA1D9B8342D8BF002017B0F0BDA5
:101CB0000C4B02491846B7E7E4550020A8F6010886
:101CC000BCF60108C0F60108ACF601081057002068
:101CD00028EF0108D8F60108B8F60108ECF601086B
:101CE000E0F6010880050208F0B52A4F1E460023E1
:101CF00097B00546144687F82C310B68002B45D069
:101D0000254A1046009003924A6824490492244AC6
:101D10000591019202916421224A234806F080FB3A
:101D2000632812D8002294F8483006AF8DF81820A6
:101D300073B91E4B40211E4A3846009506F070FBD1
:101D400000280DDA1C9B98420ADB002017B0F0BD7A
:101D50002B46184A4021384606F062FB0028F1DB8A
:101D6000154A30460097154B217A0F4C022918BFAF
:101D70001346134A1C99019406F052FB0028E5DA39
:101D80001C9B8342D8BF002017B0F0BD0D4B024A08
:101D90001846B7E7E4550020A8F60108BCF601088C
:101DA000C0F60108ACF601081057002028EF010822
:101DB000D8F60108B8F60108ECF60108E0F60108CB
:101DC00070EF010880050208F0B52A4F1E46002377
:101DD00097B00546144687F82C310B68002B45D088
:101DE000254A1046009003924A6824490492244AE6
:101DF0000591019202916421224A234806F010FBCA
:101E0000632812D8002294F8483006AF8DF81820C5
:101E100073B91E4B40211E4A3846009506F000FB60
:101E200000280DDA1C9B98420ADB002017B0F0BD99
:101E30002B46184A4021384606F0F2FA0028F1DB1A
:101E4000154A30460097154B217A0F4C022918BFCE
:101E50001346134A1C99019406F0E2FA0028E5DAC9
:101E60001C9B8342D8BF002017B0F0BD0D4B024A27
:101E70001846B7E7E4550020A8F60108BCF60108AB
:101E8000C0F60108ACF601081057002028EF010841
:101E9000D8F60108B8F60108ECF60108E0F60108EA
:101EA00088F0010880050208132910B511D90B4CE0
:101EB00084464FF0010E0FCCCCF800002068CCF81F
:101EC0000410CCF810007046CCF80820CCF80C3088
:101ED00010BD4FF0000E704610BD00BFF8F60108AF
:101EE00010B51446431C064A0846214606F098FAE7
:101EF0000028C8BF8442CCBF0120002010BD00BF15
:101F00000CF7010810B51446431C064A0846214642
:101F100006F086FA0028C8BF8442CCBF012000200A
:101F200010BD00BF14F7010810B51446431C064A43
:101F30000846214606F074FA0028C8BF8442CCBF88
:101F40000120002010BD00BF1CF7010810B5044699
:101F500040B103F091F80146204606F015FBB0FAB7
:101F600080F0400910BD00BF8368184710B50446D3
:101F7000006806F009FB00280CBF2046002010BDB9
:101F8000044B1A680AB103487047034A01481268B3
:101F90001A607047140000209800002004F036B842
:101FA00004F038B8044B1A680AB103487047034A72
:101FB000014812681A607047280000209C00002029
:101FC0000421002008B518F019F9043008BD00BF3D
:101FD00009B118F02BB80846704700BF38B108B5F2
:101FE0000B460421184618F009F9043008BD704763
:101FF0000A4618B10168104617F080BF704700BF4D
:1020000030B10421002008B518F0F8F8043008BDFC
:10201000704700BF08B501220346084604211A7024
:1020200018F0ECF8043008BD00487047700000203C
:102030000B280DDC002809DB0B2807D8DFE800F0AF
:10204000070606070606060606060707012070476C
:10205000CB2818BF01207047034A034692E80300CB
:1020600083E8030018467047ECF1010810B10068DE
:1020700000B11430704700BF00B1406800217047C4
:1020800050B1436843B1B1FA81F35B0921B10268F1
:102090001846136F0B6070470B20704718B14068EB
:1020A000003818BF0120704710B1006800B1283017
:1020B000704700BF2DE9F8430646002300687360AF
:1020C000002849D04769D0F80480D0F8109037B183
:1020D000143000F0EDF90746002844D13068036B56
:1020E00043B1283003F066FA18B1002F3ED0FEF756
:1020F00035FE3068036ADBB1D0E9062C012A7CF199
:10210000000111DB0024254653F824004946B8B1EC
:10211000C04733680134D3E9062C45F100051B6A3A
:10212000944275EB0C01EFDB18464946C047306816
:102130004946C04700233846C6E90033BDE8F88366
:10214000013445F10005944275EB0C01DCDB1846C7
:102150004946C0473068EBE7074600233846C6E9E2
:102160000033BDE8F883FEF7F9FDB7E7FFF760FF3E
:102170000746BCE770B110B50446006848B1636813
:1021800033B9FEF76FFD18B12046BDE8104091E766
:102190000B2010BD0B2070472DE9F047051E9EB0A7
:1021A0000E4690461F4640F39F80002900F09F8016
:1021B000A1F1040E4FF0000C5EF8044F0CF1010C7D
:1021C000002C00F094806545F6D1B8F1000F00F0C6
:1021D0008E80D8F80040002C00F089800DF1640C4E
:1021E0000FCCACE80F00236819A8CCF80030FEF73C
:1021F00039FD80F00100C0B2002878D1002F76D0E0
:102200003B68002B78D178210120DDE91C3298470A
:1022100004463860002800F0B68002A802F02CFBCB
:1022200002A904F12800502205F072FC19ACD7F87D
:1022300000E00FCCF446ACE80F0023680EF1140167
:102240004046CCF8003000F05DF90446002844D147
:10225000D7F800904FEAE578C9F82000C9F818507F
:10226000C9F81C80002D4ED0002E4CD004212846E9
:10227000DDE91C329847C9F82000D7F80090D9F85A
:102280002030CA4643B3012D78F100033BDB002424
:10229000043EA1460BE0316805F03AFC013449F1F7
:1022A0000009C84508BFA5422BD0D7F800A056F8B2
:1022B000040F06F045FB421C199B10461D99DAF8E5
:1022C00020A0019298473B684AF824001B6A019AB3
:1022D00053F824000028DED10A243846FFF7EAFE2E
:1022E00020461EB0BDE8F08700293FF46EAF0B24F6
:1022F00020461EB0BDE8F087642420461EB0BDE82D
:10230000F087D7F8009026490B68013336D01A467B
:1023100000240B60D9F814007B60436A0133C0E9E4
:10232000062434D090F830303BB9303000F076F9E4
:1023300004460028D1D13B68586918AA17A9406BF8
:1023400001F0CAFA04460028C7D1179BEBB93968D7
:102350004B6903F12802586B00F0E4FD04460028A5
:10236000BBD1396848692831183002F089FF04462A
:102370000028BDD0FFF75CFE0446AEE701221C46F4
:102380000A601346C6E70A24B2E70124A5E7243011
:1023900003F048FF044600289FD13B685869C1E715
:1023A00074570020A8B1036810B5044673B1FFF755
:1023B00075FE40B12068283003F098F8034658B9FC
:1023C0006060184610BD6A23184610BD0B231846DE
:1023D00010BD0B2318467047BDE81040FFF728BE1C
:1023E0000020704784B0F0B597B01DAE86E80E00AF
:1023F000002858D00368054633B16424204617B03E
:10240000BDE8F04004B070473046FEF72BFC0028D2
:1024100049D0B44611ACBCE80F000FC4DCF8003062
:102420005020219923601D9B98470446286000286E
:102430003BD00DF1440C8646BCE80F00AEE80F001F
:10244000DCF8003002A8CEF8003002F029FA0DF1D5
:10245000080E04F1180C2F6820ACBEE80F00ACE8A1
:102460000F00BEE80F00ACE80F00BEE80F00ACE8BC
:102470000F009EE803008CE8030094E803008DE859
:10248000030096E80E0007F1180002F0FBFD044679
:102490000028B3D021991E9B286898472046FFF753
:1024A000C7FD0446AAE70B24A8E70A24A6E700BF55
:1024B00030B587B0F0B103680446DBB19C460DF13E
:1024C000040EBCE80F00AEE80F00DCF8003001A8F5
:1024D000CEF80030FEF7C6FB60B12068183002F07D
:1024E0008BFE054650B92068029B059998472846FF
:1024F00007B030BD0B25284607B030BDFFF798FD6B
:102500000546F8E72DE9F04194B000285BD0044679
:102510000068002857D00E46FEF7A4FB002E52D0CC
:1025200080F00100C0B200284DD1336823B164248B
:10253000204614B0BDE8F08127680FADBC46D7F83F
:102540000080BCE80F000FC5DCF8003050201946B1
:102550002B60C04705463060D0B30DF13C0C864679
:10256000BCE80F00AEE80F00DCF800306846CEF89B
:10257000003002F095F9EE4605F1180C2468356834
:10258000BEE80F00ACE80F00BEE80F00ACE80F009B
:10259000BEE80F00ACE80F009EE803008CE80300E3
:1025A00004F1180005F1180102F0D4FD04460028DA
:1025B000BED0FEF7C3FBFEF7D1FB3046FFF778FF36
:1025C00040B10446B4E70B24204614B0BDE8F081C6
:1025D0000A24ADE7204614B0BDE8F041FFF728BD5E
:1025E00040B1036833B1B1FA81F0400911B15B6ABF
:1025F0000B6070470B20704720B1036813B10020B7
:10260000596270470B20704710B1006800B1183054
:10261000704700BF00B10068704700BF10B50023CD
:1026200082B00193B8B1044601A90C4801F0BAFA8E
:1026300010B1012002B010BD019B13B11A78312AEC
:1026400004D002230020237002B010BD5B78002B61
:10265000F7D10123F6E70B2002B010BD34F80108D2
:10266000F0B5074687B008460D46144606F068F9EF
:1026700001281FD0174E681C23461749324601F027
:102680002FFB054698B1154B226902934FF4006366
:10269000009203900193CDE9046794E80F0001F0E4
:1026A000E5FA03466268284621691D469047284698
:1026B00007B0F0BD04F10C0393E803008DE80300BC
:1026C000384694E80E0001F00BFC0546284607B09A
:1026D000F0BD00BF48F801084CF80108B4F6010845
:1026E000034A034692E8030083E803001846704754
:1026F000F4F101082DE9F04FA9B004460E46154645
:10270000DDF8C88023A81F4604F050F8B8F1000F88
:1027100000F0F3804046FEF7A5FA002D18BF002C0C
:1027200080F001000CBF4FF0010C4FF0000C002EA8
:1027300008BF4CF0010C4CEA000C1CF0FF0940F003
:10274000DC80D4F804A0BAF1000F40F0FC80002F28
:1027500000F0D3803846FFF7A1FC8346002800F044
:10276000D2805246304622A9CDF888A002F0A8FBBC
:102770008246002840F0C3802298002840F0F18073
:10278000284606F0DDF8002840F0C080794D22A9E7
:102790000022284602F078FB8246002840F0AF80F5
:1027A0002298002840F0D580D8F800307820D8F85A
:1027B0001010984782466060002800F0CF80002209
:1027C000002308A8CAE91A23CAE91C2300F098F9D3
:1027D00008A95046682205F09BF9616840462760C9
:1027E00000F09CF9002858D1284606F0A9F82844A2
:1027F00010F8013CCDE903562F2BD8F81030009388
:102800000CBF5D4B5D4B02934FF400630193D4F812
:1028100004A098E80F0001F029FA2368CAF87400B0
:10282000314618682A466668283003F015F8636850
:10283000B066986E002832D003F0A0F8824660B3EC
:10284000D8F800300820D8F81010666898476368F8
:10285000F066D3F86CB0BBF1000F20D006A823AE11
:1028600003F07AFE06A86368C44603C8D3F86CE098
:102870008BE80300BCE80F000FC6DCF800303360C3
:1028800028AB13E90F008DE80F0051463A46704619
:10289000239B03F009FF824628B36368F3B1586FA6
:1028A00028B1D8F80430D8F8101098476368986EAB
:1028B00010B102F0E3FF6368D86E48B103F050FF37
:1028C0006368D8F81010D86ED8F804309847636859
:1028D0001846D8F81010D8F80430984700234FF065
:1028E000010AC4E90033B9F1000F08D0D8F8043068
:1028F0002846D8F81010984701E04FF00B0A5046D0
:1029000029B0BDE8F08F4FF0650AF8E72B782F2B40
:102910003FF43DAF0395D8F810300093184B029365
:102920004FF40063019398E80F0001F09FF905460A
:10293000E0B1002222A9229202F0A6FA82460028E3
:10294000D4D1D9462CE74FF0640A504629B0BDE8EF
:10295000F08F4FF0CA0A02F0A7FAC4E74FF00A0A54
:10296000C1E74FF0C90A02F051FBC8E74FF00A0A6D
:10297000C5E700BF4CF80108D8F6010854F8010873
:1029800050F80108F8B520B345680446FDB1A86EBB
:102990006F682E6902F072FF63680546D86E03F017
:1029A000DFFE55EA00036368314614BF01250025A8
:1029B000D86EB84763683146186FB84763683146C8
:1029C000586FB84731466068B847002363602846AF
:1029D000F8BDC8252846F8BD28B1406818B1806EFA
:1029E000003818BF0120704730B1436823B19B6E97
:1029F00013B10068FFF752BB0020704720B1406858
:102A000010B1806E00B18068704700BF20B140688F
:102A100010B1806E00B1C068704700BF30B140682F
:102A200020B1836E0BB1406F70471846704700BFEE
:102A300028B1406818B1836E002B08BF0020704792
:102A4000A8B138B5436804466BB19B6E5BB10068B2
:102A50000D46FFF723FB30B13DB129462068BDE8A4
:102A60003840FFF70DBBC82038BD0B2038BDC8204B
:102A7000704700BF10B1406800B1806E704700BF62
:102A800030B1436823B19B6E13B10068FFF7F4BA0D
:102A900000200021704700BF30B1406820B1836E34
:102AA0000BB1C06E70471846704700BF30B1406828
:102AB00020B1836E0BB1006F70471846704700BF9E
:102AC00010B5002382B00193A0B1044601A90B48C0
:102AD00001F068F810B1012002B010BD019A002089
:102AE0001378313B08BF5378B3FA83F35B09237043
:102AF00002B010BD0B2002B010BD00BF5CF8010891
:102B000010B504466822002105F09CF82046FEF727
:102B10009BF801232046237510BD00BF002818BF75
:102B200088421BD0F8B5B1FA81F60C46760999B106
:102B30000546878A84468E460FCDAEE80F002B6887
:102B400050220CF1180104F11800CEF80030A782D1
:102B500004F0DEFF3046F8BD0B20F8BD0B207047B7
:102B6000C0B1844600B587B0BCE80F000DF1040E7B
:102B7000AEE80F00DCF8003001A8CEF80030FEF718
:102B800071F818B1002007B05DF804FB0B2007B006
:102B90005DF804FB0B20704782B02DE9F04F91B037
:102BA0001AAC9DF87C8084E80C0000283DD00C46CF
:102BB0000546FFF73DFF00283AD02846FFF71EFFE5
:102BC000064628460BADFFF721FF0DF1680E0746BC
:102BD000AC46BEE80F00ACE80F00DEF80030CCF8E1
:102BE0000030219B0BB38946DDF878A001F0B6F9DF
:102BF00010AB089013E907008DE80700002108A832
:102C000095E80C0001F038FA8346A0B1FEF796F87B
:102C1000FEF7A4F8BBF10A0F18BF4FF0010B58469E
:102C200011B0BDE8F04F02B070474FF00B0BF6E764
:102C30004FF0010BF3E70990079008A803F086FC1A
:102C4000834680B10A2808A818BF4FF0010B01F095
:102C500053FA044600285BD151460998C8475146AB
:102C60002046C847DBE709ABEC4605930FCDACE83F
:102C70000F002B683A4631462046CCF8003008ABAE
:102C800003F004FB8346D8B9099C024609900AA9BF
:102C9000204601F099FF50BB0A9D002D40D1219B99
:102CA00008A81C6001F028FA8346002843D0FEF7EC
:102CB00045F8A8464FF0010B2C46FEF74FF80AE006
:102CC000672814BF4FF0000808F00108079C08A807
:102CD00001F012FA50BB51460998C84751462046A8
:102CE000C847B8F1000F18BF4FF0680B97E7FEF721
:102CF00025F8FEF733F808A801F0FEF998B9514617
:102D00000998C847514620464FF0010BC84786E74F
:102D1000DDF81C80FEF712F8FEF720F84446DAE7EB
:102D20004FF0670BD3E7D8464FF0010BFEF706F8DC
:102D3000FEF714F8CFE751460998C8475146584660
:102D4000C8476CE730B5002383B00193A8B10546AE
:102D500001A90B4800F026FF044610B1012003B082
:102D600030BD0849019805F00FFC03462046B3FA30
:102D700083F35B092B7003B030BD0B2003B030BD73
:102D800078F801088CF8010830B5002383B001936E
:102D9000A8B1054601A90B4800F004FF044610B194
:102DA000012003B030BD0849019805F0EDFB034652
:102DB0002046B3FA83F35B092B7003B030BD0B20C0
:102DC00003B030BD94F80108ACF80108F0B502F189
:102DD00008070B4685B01446064697E807008DE8BD
:102DE00007001846194994E80C0000F00DFF3378ED
:102DF00005462F2B23D004F10C0393E803008DE844
:102E00000300701C94E80E0000F004FF064697E8EB
:102E100007008DE807003146284694E80C0000F0D2
:102E2000F3FE0346304662681E46216990472846F5
:102E30003546636821699847284605B0F0BD737828
:102E4000002BD8D1284605B0F0BD00BFB4F801086A
:102E50002DE9F04385B068B1074608460C46FDF7FA
:102E600001FF38B100232D4803A9039300F09AFE17
:102E7000054620B10025284605B0BDE8F083039B38
:102E80001A78002AF6D004F10C0999E803008DE8BD
:102E90000300184694E80E0001F022F8804600284E
:102EA000E8D003A91E48039500F07CFE60B100261F
:102EB00030466368216998474046636821699847AE
:102EC000284605B0BDE8F083039B1E78F6B199E86B
:102ED00003008DE80300184694E80E0001F000F8A6
:102EE00006460028E3D022464146FFF76FFF05461D
:102EF000002DDDD0284600F07BFE03460028D7D108
:102F0000284621691D4663689847D1E7224638461E
:102F10004146FFF75BFF0546EAE700BFC0F801083E
:102F2000D8F801082DE9F04182B0002306460F468B
:102F3000214801A99046019300F034FE20B10125FB
:102F4000284602B0BDE8F08104461C49019805F00E
:102F50001BFB0546F0B90190B8F1000F21D001A983
:102F6000174800F01FFE0028E9D11649019805F026
:102F70000BFB034639463046B3FA83F35B0988F806
:102F80000030FFF765FF70B1C8F80400284602B0B2
:102F9000BDE8F081254688F80040284602B0BDE82B
:102FA000F0810B25CCE798F80050A5F10105B5FAA2
:102FB00085F56D09C4E700BF78F801088CF80108B1
:102FC00094F80108ACF80108D0F808C02DE9F84FD2
:102FD0000B78BCF1000F2FD0023B0D4606469246FF
:102FE000DBB2012B2AD9002417E0D3E90491B9F10F
:102FF000010F71F100070DDBAF684F45EF6877EB0C
:10300000010107DB52F8308051461A6A2846C04752
:10301000D6F808C00134A4450ED904EB84007268C8
:1030200002EBC003D3E906910029DEDAAF68B945A7
:10303000EF68B941E6DAD8E7BDE8F88F4FF000084D
:1030400007E054F839401A6AA047D6F808C0E045AE
:10305000F2D208EB8809746808F10108514604EBC4
:10306000C90328461A7A002AEBD1D3E906B2002A0E
:103070000DDBD3E904B2BBF1010F72F10007E6DB0F
:10308000AF685F45EF6877EB0202E0DBD9E7AF6836
:10309000BB45EF68BA41D4DAEBE700BF084601F060
:1030A0009FBB00BF084601F0C1BB00BF037A10B54B
:1030B0000C4643B1052100F081FC02460B4600207E
:1030C000C4E9002310BD0846BDE8104001F088BBEC
:1030D000A0B1037893B1C36883B1006900B583B030
:1030E0006946984760B9DDE90023012A73F10003BE
:1030F000ACBF0120002003B05DF804FB0020704746
:10310000002003B05DF804FB38B1037823B1C06838
:10311000003818BF0120704718467047F8B50546BB
:10312000104614460E46FDF79DFD28B1032D03D829
:10313000DFE805F01F3059064FF00B0C6046F8BD74
:10314000002CF9D0B6FA86F35B09002EF4D0336177
:103150009C4606F11405324F4FF0030EC6E90133C9
:103160000FCC0FC5236860462B60F76086F800E03F
:10317000F8BD002EE0D0002306F1140533709C4604
:10318000C6E90133C6E903330FCC0FC52368604697
:103190002B60F8BD002CCFD0B6FA86F56D09002E55
:1031A000CAD0A646357006F1140CBEE80F00C6E979
:1031B0000155C6E90355ACE80F00DEF800301020D9
:1031C000CCF80030236821699847306120B3002291
:1031D0000023AC460572C0E90023124A0123604671
:1031E000F2603370F8BD002CA6D0B6FA86F35B0906
:1031F000002EA1D033619C4606F11405DFF828E0CB
:103200000227C6E901330FCC0FC5236860462B6047
:10321000C6F80CE03770F8BD4FF00A0C8EE700BF1F
:10322000A5300008AD3000089D30000800282DD0E2
:1032300038B504461430FDF715FD40B12378022B54
:1032400007D0032B05D0012B0FD00B2038BD012058
:1032500038BDA0680028F9D000256068A369616ABC
:10326000A56098472846656038BDA36833B100253E
:10327000A369616A6068A56098476560A369206971
:10328000616A984700231846236138BD0B207047B8
:1032900061B370B5B0FA80F504466D0910B30E46FF
:1032A00005708C4600F1140EC0E90155C0E90355C4
:1032B0000FCEAEE80F0033681020CEF80030DCF8F7
:1032C0000030DCF8101098470346206160B10572A9
:1032D0002846094A9FED067B83ED007B0123E260CF
:1032E000237070BD0B2070BD0A2070BD0B2070478D
:1032F0000000000000000000AD300008B8B138B593
:1033000003780446012B10D1836833B1002583690B
:10331000416A4068A56098476560A3692069616A51
:10332000984700231846236138BD012038BD0B2083
:10333000704700BFF0B5C0B1B1FA81F46409A1B122
:103340008C460461864600F11405094F0326C0E946
:103350000144BCE80F000FC5DCF8003020462B60AC
:10336000CEF80C708EF80060F0BD0B242046F0BD46
:10337000A530000888B138B503780446032B0AD17C
:10338000806838B100256068A369616AA5609847C4
:103390002846656038BD012038BD0B20704700BF4E
:1033A000F0B5C0B1B1FA81F46409A1B18C460461F1
:1033B000864600F11405094F0226C0E90144BCE825
:1033C0000F000FC5DCF8003020462B60CEF80C70E3
:1033D0008EF80060F0BD0B242046F0BD9D30000843
:1033E00088B138B503780446022B0AD1806838B119
:1033F00000256068A369616AA560984728466560F2
:1034000038BD012038BD0B20704700BF002918BF10
:10341000002A18D00346B0FA80F040099BB130B4BE
:1034200093F808C00C7AA4450AD11D685B68D1E9FD
:103430000041641B61EB0303C2E9004330BC7047E9
:10344000012030BC70470B20704700BF40B139B13C
:1034500003781BB1C3680BB100691847012070479E
:103460000B207047002858D02DE9F047044600781B
:1034700084B0012807D1266916B1357A3DB1002004
:1034800004B0BDE8F087012004B0BDE8F087002358
:103490000022D4F80880E946CDE9022302238DF802
:1034A0000030B8F1000F08D126E05CF83E801A6ABF
:1034B000C047D4F8088045451ED205EB850ED4F8E8
:1034C00004C0013501210CEBCE0348461A7A002ACC
:1034D000EBD1D3E906A2002A19DBD3E904A2BAF1A1
:1034E000010F72F10007E6DB029F5745039F77EB60
:1034F0000202DADA4545E0D301232046002249469C
:103500003372FFF761FD002004B0BDE8F087029F31
:10351000BA45039FBA41C8DADFE70B20704700BF06
:10352000002857D02DE9F04B0446007884B00128DC
:1035300006D126690EB1307A30B904B0BDE8F08BFF
:10354000012004B0BDE8F08B002000210323A56812
:10355000CDE902018DF80030002D3DD04FF000087C
:10356000E94606E05CF83E501A6AA847A568A845F7
:103570001FD208EB880ED4F804C008F1010801211D
:103580000CEBCE0348461A7A002AEBD1D3E906B2F7
:10359000002A19DBD3E904B2BBF1010F72F1000775
:1035A000E5DB029F5F45039F77EB0202DADAA8456D
:1035B000DFD30025204649462A463572FFF704FD31
:1035C000284604B0BDE8F08B029FBB45039FBA417B
:1035D000C8DADFE70B207047E946EAE770B1B1FAD5
:1035E00081F35B0951B10278012A05D1006918B154
:1035F000027A18460A707047012070470B20704706
:1036000000283ED02DE9F043067887B00446012E0D
:1036100003D0012007B0BDE8F083D0F81090B9F1D5
:10362000000F30D099F8085015B390464846052150
:103630001F468DF8086000F0C1F9B8EB0000324673
:1036400067EB010104902046059102A9FFF7BCFC3D
:10365000052142463B464846009100F0E5F92046E8
:10366000002202A9FFF7B0FC002007B0BDE8F083FC
:1036700005214846009100F0D7F9284607B0BDE87B
:10368000F0830B2070473046C4E700BF82B02DE9BD
:10369000F04106A9DDE90C5681E80C0030B3044680
:1036A0001430FDF7DFFA0DB380F0010313F0FF03D0
:1036B0001CD1099A002A19DBDDE90A12012972F1ED
:1036C000000213DAD4E90107002F40D0024603E0DC
:1036D000BB4202F1280210D011680133A942F7D190
:1036E000116AB142F4D14FF0010E01E04FF00B0E20
:1036F0007046BDE8F04102B07047013303EB83032D
:10370000D900E369626A9847F0B1A3680DF1180C1B
:1037100060604FF0000E03EB830203F1010840F8F4
:10372000325000EBC205BCE80F0005F108070FC7D7
:103730009CE8030087E8030070462E62C4F8088006
:10374000BDE8F04102B070474FF00A0ED0E72821E3
:10375000D7E700BF00285FD02DE9F04705461430B9
:103760000F469246FDF77EFA80F00100C0B20028B5
:103770003FD1002F3DD0D5F80880B8F1000F0CD014
:10378000D5F8049008EB88064C4609EBC60623687A
:10379000BB4205D02834A642F9D10120BDE8F0870C
:1037A000236A2834A6422FD05345F0D1A646A4F16F
:1037B000280C2834BEE80F00ACE80F00BEE80F006C
:1037C000A642ACE80F009EE803008CE80300EDD1B0
:1037D00008F1FF34AC607CB104EB8404EB696A6AE5
:1037E0004846E10098470346C0B100206B60BDE841
:1037F000F0870B20BDE8F0874846AB69696A9847B7
:1038000020466C60BDE8F0875345C6D108F1FF340F
:10381000AC60002CE0D1EFE70B2070470A20E9E70D
:10382000002849D070B51546C2B09AB11E466A4606
:1038300001AB0C4601F0D4FA8446B8B9009971B1D5
:10384000072919D04B1E052B3AD8DFE803F02629AB
:103850002C2F321D4FF00B0C604642B070BD072973
:103860000AD0002360462B6042B070BDFEF7E0FB3B
:103870008446604642B070BDFF2CF2D92960002E0C
:10388000EAD0FE233360E7E706232B60002EE3D067
:10389000019B6046336042B070BD01232B60F5E7A9
:1038A00002232B60F2E703232B60EFE704232B6056
:1038B000ECE705232B60E9E74FF00B0C60467047FF
:1038C0000B46044A4FF4807102A800F0BBFA4FF097
:1038D000010CC1E7F8F8010860B170B50D46164655
:1038E000044605F02DF8334601462A462046BDE839
:1038F000704095E70B207047072803D8024B53F818
:10390000200070470148704700F2010858F901088B
:1039100080EA10401349144A80F03D0303EBC303CF
:1039200083EA131301FB03F34FF0010183EAD3335E
:1039300010B40E4CA4FB0340000900EB4004C0EBA4
:10394000C4001B1A1A44D2E84F3FC2E8401F0028A7
:10395000F9D1DBB2BFF35B8F002BF4D15DF8044BE0
:10396000704700BF2DEBD42778570020C94216B20C
:1039700080EA10400E4A0F4980F03D03002003EB1F
:10398000C30310B4BFF35B8F0B4C83EA131304FB28
:1039900003F383EAD333A2FB0342120902EB420C86
:1039A000C2EBCC029B1AC8545DF8044B704700BFB1
:1039B000C94216B2785700202DEBD42780EA104177
:1039C000164A174B4FF0010C81F03D0101EBC1018C
:1039D00081EA111102FB01F181EAD131A3FB01233C
:1039E0001B0903EB4302C3EBC203D0B4C91A0D4C4D
:1039F0006218D2E84F3FC2E846CF002EF9D1DBB2C1
:103A0000BFF35B8F002BF4D1D0E90067BFF35B8F6E
:103A1000635430463946D0BC704700BF2DEBD427E5
:103A2000C94216B27857002070B580EA104E164988
:103A3000164C8EF03D0E0EEBCE0E8EEA1E1E01FBD6
:103A40000EFE13498EEADE3EA1FB0E514FF001053A
:103A5000090901EB410CC1EBCC01AEEB010E04EB0B
:103A60000E0CDCE84F1FCCE8465F002EF9D1C9B23E
:103A7000BFF35B8F0029F4D1C0E90023BFF35B8F54
:103A800004F80E1070BD00BF2DEBD427785700202E
:103A9000C94216B280EA104C17498CF03D0C0CEB71
:103AA000CC0C8CEA1C1C01FB0CFC14498CEADC3CA1
:103AB00070B58646A1FB0C01114D4FF001000909BC
:103AC00001EB4104C1EBC401ACEB010C05EB0C01B3
:103AD000D1E84F4FC1E8460F002EF9D1E4B2BFF351
:103AE0005B8F002CF4D1DEE90001CEE90023BFF3A7
:103AF0005B8F05F80C4070BD2DEBD427C94216B280
:103B00007857002080EA104C1B498CF03D0C0CEBE0
:103B1000CC0C8CEA1C1C01FB0CFC18498CEADC3C2C
:103B200070B58646A1FB0C01154D4FF00100090947
:103B300001EB4104C1EBC401ACEB010C05EB0C0142
:103B4000D1E84F4FC1E8460F002EF9D1E4B2BFF3E0
:103B50005B8F002CF4D1DEF80000DEF80410821830
:103B600041EB0303CEF80020CEF80430BFF35B8FA7
:103B700005F80C4070BD00BF2DEBD427C94216B22A
:103B80007857002008B530B131B1012204F004FBB0
:103B9000B0FA80F0400908BD04F00CFBB0FA80F0E8
:103BA000400908BD68B110B50C4629B103F07CFC92
:103BB00020B12060002010BD034810BD034B2360DE
:103BC00010BD0348704700BF38FB0108800502089C
:103BD0001CFB010808B5044803F066FC18B1037823
:103BE000002B08BF002008BD54FB010800207047CF
:103BF0000020704700207047002070470020704769
:103C0000002070470020704782B000208DE80C0033
:103C100002B0704784B000200DF1040C04B08CE8B1
:103C20000E00704784B000200DF1040C04B08CE845
:103C30000E0070470020704782B002208DE80C0013
:103C400002B0704782B00220019302B0704700BFFB
:103C500084B000200DF1040C04B08CE80E00704715
:103C600000207047704700BF002070470FB4F0B5C8
:103C700083B008AC0E9E84E80F0026B308A8FCF7BA
:103C8000F1FF00B300210FAB32460846CDE9003307
:103C900000F006F9431C054615D0471C0D9B9F42BA
:103CA00001D95D1E1F46089B38460C99984704466B
:103CB00048B132463946019B00F0F2F8002809DB92
:103CC0000023635500E00024204603B0BDE8F04027
:103CD00004B070472046099B0C9900249847F3E7ED
:103CE0002DE9F04F2DED028B87B0002680468A46E5
:103CF0000090084608EE102A9946102504F020FE90
:103D00003746B34601901EE00BF1010B019B5E4567
:103D100004EB030811D22E44D9F80830D9F810204A
:103D200005EB4505B1009847002800F08880B5F5FF
:103D3000801F074628BF4FF48015009A07EB8B03BE
:103D4000A41A43F8044C5146404605F001F80446D5
:103D50003846002CD8D1404604F0F2FD009BA8EB79
:103D6000030808EB00040294BBF1000F45D018EEE5
:103D7000100A04F0E5FD019A0646D9F80030821ACF
:103D8000D9F810100BFB0242501C0592984782464E
:103D9000002854D03A683D460099012403F0B8FE4B
:103DA0003B68CDE9037A0AEB030818EE107ADDF8D8
:103DB00000A0CDF80090DDF8049032463946404628
:103DC000B04403F0A5FE55F8042BA3454A440AEB82
:103DD00002012AD02868821A4046904403F098FED7
:103DE000621CA3451446E8D8DDF80090DDE9037AAB
:103DF0000023059A0AF802300BE02046D9F800307B
:103E0000D9F8101001309847824610B1009904F09B
:103E100025FD3846D9F80430D9F810109847504697
:103E200007B0BDEC028BBDE8F08F029B4046DDF889
:103E300000909A1ADDE9037A03F06AFED8E74FF0A2
:103E4000000AE6E70CB430B583B006AB53F8042B98
:103E50000193E2B1B0FA80F4B1FA81F550EA010CB5
:103E60004FEA54144FEA551508D084B97DB907F0CC
:103E700009FE03B0BDE8304002B0704761466046BD
:103E800007F000FE03B0BDE8304002B0704703F019
:103E9000E3FA162203464FF0FF301A60E9E700BF4D
:103EA00070B5B2B1B0FA80F4B1FA81F550EA010C04
:103EB0004FEA54144FEA551505D054B94DB9BDE831
:103EC000704007F0DFBD61466046BDE8704007F016
:103ED000D9BD03F0C1FA162303604FF0FF3070BD67
:103EE00084B070B582B0054607AC84E80E00B0B16E
:103EF00004F026FD421C079B06460B9910460192D2
:103F00009847044628B1019A294603F001FE002390
:103F1000A355204602B0BDE8704004B07047044687
:103F2000F7E700BF82B0F8B506AC054684E80C00A0
:103F300088B14F1C0E460A9938469047044628B16E
:103F40003A46294603F0E4FD0023A3552046BDE888
:103F5000F84002B070470446F8E700BF0020014B6C
:103F6000186070479057002030B1036833B119B121
:103F70009B6800200B6070470B2070471F20704724
:103F800030B1036833B119B1DB6800200B607047B2
:103F90000B2070471F20704700285ED02DE9F041AC
:103FA0000C46016882B0054629B1CB68A34206D908
:103FB0001C460029F9D11F2002B0BDE8F0818B68B2
:103FC000A34246D00E6A002C33D0B4F1804F42D2C7
:103FD000A700D1F81880086832463946C047002843
:103FE00039D02B683246394618605868C0470028D7
:103FF00031D02D68AB686860A34225D22A6800EBF7
:10400000070C990002EB830E00EB8306E64503D212
:1040100002EB070C664522D3E31A704600219A0092
:10402000019203F00FFE019A0021304603F00AFED0
:104030000AE04F6908683146B8472B68314658682E
:104040001C60B8472D686C600020AC6002B0BDE811
:10405000F0810020B0E70A20AEE70B2070470B1F6D
:1040600018441344043A1744002243F8042FBB4277
:1040700040F8042FF9D1E7E782B070B504AC84E8CA
:104080000C0080B3066804462EB11E252846BDE804
:10409000704002B0704704A80D46FCF7E3FD10B372
:1040A000049B242008999847206010B30DF1100E4E
:1040B00000F1100CC0E90066C0E90266BEE80F001E
:1040C000ACE80F00DEF8003029462046CCF800307E
:1040D000FFF762FF05460028D8D0059B08992068A5
:1040E00098472660D2E70B252846BDE8704002B00D
:1040F00070470A25CAE700BF2DE9F04182B00028C9
:104100003AD004680646002C32D0A3682BB30025B1
:1041100022682F4652F82500E0B1216AD4F81480B5
:104120000191C0470199D4E9003243F8257052F853
:104130002500C047E3686268013B42F825700135FD
:10414000E3603468A3689D4207D2226852F82500D4
:104150000028E2D101359D42DCD300213046FFF733
:104160001BFF044620B930684369016A98473460F0
:10417000204602B0BDE8F0810B24204602B0BDE825
:10418000F08100BF002831D02DE9F041056882B0F0
:1041900006466DB3AB682BB300242A68274652F855
:1041A0002400E0B1296AD5F814800191C047019933
:1041B000D5E9003243F8247052F82400C047EB6878
:1041C0006A68013B42F824700134EB603568AB68E3
:1041D0009C4207D22A6852F824000028E2D1013418
:1041E0009C42DCD3002002B0BDE8F0810B20704778
:1041F0001F20F8E72DE9F04F8FB0CDE9030200282A
:104200007FD0D0F800B0BBF1000F00F0A3800F46C4
:10421000002976D0B2FA82F46409002A71D0DBF862
:1042200014300BF1100609AD0693DBF8203007932C
:104230000FCE0FC5336838462B6004F081FBDBF8E6
:1042400000308046DBF808A00593BAF1000F00F0BB
:1042500085801E1F56F8045F4FEA84090134284602
:104260005DB104F06DFB024629463846424538BF31
:10427000424604F0D3FB002848D0A245EAD1DBF83F
:104280000C2052457CD00599002201E052455CD0BB
:104290000D4651F8043B94000132002BF6D10CAED0
:1042A00009AB96E803008DE8030038460ECBFFF714
:1042B00017FE039B28601B681A681259002A4BD00E
:1042C0005B6896E803001D5909AB8DE8030004986C
:1042D0000ECBFFF705FE0646002845D0039B1B6862
:1042E0005A6810512DB1069B284607999847039BA1
:1042F0001B68DA6800250132DA6028460FB0BDE895
:10430000F08F0B2528460FB0BDE8F08FDBF80430A6
:10431000054653F809400EAB13E9030009AB8DE8DD
:10432000030004980ECBFFF7DBFDA8B1039B1B68CD
:104330005B6843F80900002CDFD020460799069BF4
:10434000984728460FB0BDE8F08F059B940003EB1B
:104350008205A4E71F25D0E70A25CEE7DBF80C206D
:1043600072B11D4654469AE7039D07992B681B6856
:104370001859069B98472B680A251B681E51BCE7F5
:104380000C25BAE700B3036870B50446F3B11546CF
:1043900032B10E4621B1FFF72DFF0C2802D070BDBF
:1043A0000B2070BDFCF7DAFC2368996881B14900E5
:1043B0002046FFF7F1FD0028F1D12A46314620467C
:1043C000BDE87040FFF716BF0B2070471F2070BD7F
:1043D0000121EDE72DE9F04F83B000284ED0D0F851
:1043E00000B0BBF1000F4ED00F46002946D0084662
:1043F00004F0A6FADBF80890DBF800300190B9F180
:10440000000F18D0A3F1040A00245AF8045F4FEA01
:1044100084080134284665B104F092FA019B0246F3
:10442000294638469A4238BF1A4604F0F7FA06463B
:1044300030B1A145E9D12026304603B0BDE8F08F68
:10444000DBF820102846DBF814400191A047DBF888
:104450000030019943F80860DBF8043053F8080095
:10446000A047DBF80C30DBF804203046013B42F873
:104470000860CBF80C3003B0BDE8F08F0B26304657
:1044800003B0BDE8F08F1F26D6E700BF2DE9F84343
:104490000E4601B300B30068F0B1D0F80880076899
:1044A000B8F1000F17D00846043F04F049FA002580
:1044B000814657F8044F0135204654B104F040FAC4
:1044C0000246214630464A4538BF4A4604F0A6FA1D
:1044D00020B1A845EDD10020BDE8F8830120BDE85A
:1044E000F88300BF2DE9F04768B303680F46002B3F
:1044F00018BF00290CBF4FF001084FF0000822D070
:10450000D3F808A01E68BAF1000F1ED09146043EF1
:10451000454601E0AA4518D056F8044F013520461B
:10452000002CF7D004F00CFA0246214638464A45E2
:1045300038BF4A4604F072FA0028EBD14FF0010868
:104540004046BDE8F0874FF000084046BDE8F087E0
:104550002DE9F84F884611B308B3076807B3D7F8B9
:1045600008903E68B9F1000F19D00846043E04F0E7
:10457000E7F90024824656F8045F4FEA840B0134C1
:10458000284655B104F0DCF902462946404652451A
:1045900038BF524604F042FA28B1A145EBD10027BA
:1045A0003846BDE8F88F7B6853F80B703846BDE895
:1045B000F88F00BF78B32DE9F84FD0F800B0BBF109
:1045C000000F1FD0B1FA81F488466409D1B1DBF83D
:1045D0000870DBF80060AFB19146043E56F8045F06
:1045E0004FEA840A0134284655B104F0A9F902467D
:1045F000294640464A4538BF4A4604F00FFA20B1E2
:10460000A742EBD10020BDE8F88FDBF8043053F867
:104610000A00BDE8F88F704790B3006880B3C368A4
:104620007BB370B58468C9B1B4B1036800260122B8
:10463000A3F1040C334602E0A24272460BD25CF8AE
:10464000045F02F1010E8D42F6D1A24213464FF0F3
:1046500001067246F3D316B9002070BD0B46A34283
:10466000FAD26FF040410268194402EB810201E086
:10467000A342F2D052F8040F01330028F8D070BDE5
:1046800070471846704700BF002818BF00292DE961
:10469000F04F83B00CBF01230023019000F09D80F8
:1046A000D0F80090B9F1000F38D00A688A46AAB352
:1046B000D9F80C2072B3D9F808605EB3D9F800C0FD
:1046C000ACF10404224601E0B34223D052F8045F67
:1046D0000133002DF8D0A3460024284604F030F919
:1046E00000905BF8047F4FEA8408013438465FB1DC
:1046F00004F026F9009B0246394628469A4238BF04
:104700001A4604F08BF958B1B442EAD1022003B042
:10471000BDE8F08F002003B0BDE8F08F1F20FAE75E
:10472000D9F8043053F80840002CEFD0DAF8003004
:10473000002BF3D0224629465046FFF75BFD0C289C
:1047400037D00028E7D1019BD3F80090B9F1000FD2
:10475000E0D0D9F80C30002BDCD0D9F80860002E5E
:10476000D8D0D9F800C001210246ACF10404234698
:1047700002E0B14239460AD253F804EF4F1CAE456D
:10478000F7D1B1420A464FF001003946F4D3002870
:10479000C0D0B242BED26FF0404111440CEB810157
:1047A00001E0B242B6D051F8045F0132002DF8D0DA
:1047B00091E7FCF7D3FADAF80030996859B149006B
:1047C0005046FFF7E9FB0028A5D12246294650466E
:1047D000FFF710FDB5E70121F2E70B209BE700BFD3
:1047E00000B370B584B004460120694614F088FC1B
:1047F000DDE90031002912DB53EA0102029D01D1FB
:10480000002D0CDB084E0020A3FB06325B1906FBD3
:10481000012242EBE572C4E9003204B070BD02200F
:1048200004B070BD0B20704700CA9A3B00B370B54E
:1048300084B004460020694614F062FCDDE90031D2
:10484000002912DB53EA0102029D01D1002D0CDB8D
:10485000084E0020A3FB06325B1906FB012242EB47
:10486000E572C4E9003204B070BD022004B070BD2E
:104870000B20704700CA9A3B10B50446103000F078
:104880000FF800232046A360A364E3649FED027B3E
:1048900084ED007B10BD00BF0000000000000000A0
:1048A00010B504463822002103F0CCF904F11000C1
:1048B00000F00AF84FF0FF332046E36010BD00BF60
:1048C000002202704260704700220270426070470E
:1048D00040B3F0B5054683B008460C461646FCF7D3
:1048E000C1F980F00100C0B2C8B9C6B104F10C032F
:1048F00093E803008DE8030094E80E006868FFF772
:10490000EFFA6B68074603B170B16368706821699C
:104910009847776000202B78337003B0F0BD0B20F0
:1049200003B0F0BD0B2070470A20F6E748B3F0B59E
:10493000064683B008460C461546FCF793F980F00E
:104940000103DBB2C3B9B5FA85F77F09A5B104F15C
:104950000C0393E803008DE80300304694E80E0052
:10496000FFF7BEFA064650B1686863682169984748
:1049700038466E6003B0F0BD0B2003B0F0BD0A20D6
:10498000F8E70B20704700BF88B138B504460846E9
:104990000D46FCF767F940B16B6860682969984774
:1049A000002318462370636038BD0B2038BD0B20F0
:1049B000704700BF00000000F0B484B004AC04E90C
:1049C0000F0003462549019D104699424FF002020F
:1049D000039EAA4130D3224C6FF00041A3FB043266
:1049E00004FB0522DD438C1A8542B44132D310EB1F
:1049F000030C42EB0601194802220A9D0B9FDDE9D8
:104A000008369842B2411CD3154C6FF00040A3FB0E
:104A1000043204FB0622DE43841AAE42BC4115D3A5
:104A20005B1942EB07028A4208BF63450CBF0120B5
:104A3000002004B0F0BC70474FF0FF3C6FF0004125
:104A4000D9E74FF0FF336FF00042ECE74FF0FF3350
:104A50000246E8E74FF0FF3CCDE700BF047DC125EB
:104A600000CA9A3B70B485B004AC04E90F00034659
:104A70001349019D104699424FF00202039EAA413C
:104A800011D3104C6FF00041A3FB043204FB05224C
:104A9000DD438C1A8542B4410CD3181842EB060151
:104AA00005B070BC70474FF0FF306FF0004105B0AB
:104AB00070BC70474FF0FF3005B070BC704700BF4E
:104AC000047DC12500CA9A3B70B51D1E044616DB45
:104AD000164629460FA3D3E90023304602F0A8FA70
:104AE00002460B4630462946C4E9002309A3D3E910
:104AF000002302F09DFA2046C4E9022370BD044B56
:104B00000FCB84E80F00204670BD00BFAFF30080DC
:104B100020F2010800CA9A3B0000000082B0F8B5FC
:104B200006A91F46054681E80C002349022391424D
:104B3000BB412DD321486FF00041A2FB0023DDE9EA
:104B4000084600FB0733D043C91AA042B1411FD326
:104B5000141943EB0606002E1FDB2046314614A332
:104B6000D3E9002302F064FA02460B4620463146A0
:104B700016461C460EA3D3E9002302F059FA284634
:104B8000C5E90064C5E90223BDE8F84002B07047FA
:104B90000B4A0023084E0224F1E70A4B0FCB85E8AD
:104BA0000F002846BDE8F84002B07047AFF3008020
:104BB00000CA9A3B00000000047DC12500CA9A3B50
:104BC000FFD7F23220F2010800285DD02DE9F04134
:104BD0000D4600295AD00446164603F0B1FE50B1E6
:104BE00023782F2B0ED002232B6046B100231846CA
:104BF0003360BDE8F08101232B60002EF6D1002048
:104C0000BDE8F081431EE25C2F2A41D0621EC4F150
:104C1000010E02EB00080EEB020712F8013F23F031
:104C20002001A3F12F0C413919290FD9BCF10A0F2A
:104C30000CD9A3F15F03B3FA83F35B0933B9042200
:104C40002A60002EDBD018463760D2E74245E2D119
:104C500001231A4F04E0984204F1010413461CD9C1
:104C6000984203F10102F6D021782F29F3D161781F
:104C70002F291ED0C95D4907EDD506222A60002ED6
:104C8000BDD000203360B4E70B2070470B20B0E7A5
:104C900003222A60002EF4D1B1E7F72803D80023BD
:104CA00018462B60A5E707232B60002EA7D0F6231C
:104CB000E7E705222A60002EE3D1A0E7BDF2010854
:104CC00000285FD0B2FA82FC4FEA5C1C002A59D05F
:104CD000002950D02DE9F04104782F2C24D14D1E0D
:104CE000445D2F2C52D0864600F1FF3C0544C0F1B4
:104CF000010707EB0C081CF8010F20F02004A0F1BD
:104D00002F06413C192C17D90A2E15D9A0F15F00A6
:104D1000B0FA80F0400978B904211160002B38D036
:104D2000C3F80080BDE8F081022111608BB300223E
:104D300010461A60BDE8F081AC45DAD10124214E5D
:104D400004E0A1420EF1010E044628D9A14204F16B
:104D50000100F6D09EF800502F2DF2D19EF80150A0
:104D60002F2D2AD0AD5D6D07EBD50621116083B1E3
:104D700000201C60DEE7012111602BB100221046EB
:104D80001A6070470B2070470020704703211160A4
:104D900013B90020BDE8F08160461D60CAE7F7291D
:104DA00003D8002318461360C4E707211160002BC5
:104DB000EFD0F62200201A60BCE705211160002B1D
:104DC000D6D1E6E7BDF20108072803D8024B53F815
:104DD000200070470148704730F201085CFB010871
:104DE000002843D070B51446C2B02AB301290D463D
:104DF0001E4602D103782F2B12D001AA6946FFF775
:104E0000E3FE80B9009A4AB1072A07D0531E052B4A
:104E10002ED8DFE803F01C1F22252814F52D04D816
:104E200000231846236042B070BD07232360002E84
:104E3000F9D0F4233360F6E70B2042B070BD0623AF
:104E40002360002EEFD0019B336042B070BD012380
:104E50002360F6E702232360F3E703232360F0E7F0
:104E600004232360EDE705232360EAE70B20704766
:104E700013464FF48071034A02A8FEF7E3FF0120B6
:104E8000D1E700BFF0FC010860B170B50D461646D1
:104E9000044603F055FD334601462A462046BDE848
:104EA00070409DE70B207047072803D8024B53F84A
:104EB000200070470148704750F2010840FD01088A
:104EC000002842D02DE9F0410D4600293FD004468C
:104ED000164603F035FD10B3631EC4F1010103EB68
:104EE0000008CF1813F801EFAEF130022EF0200CBD
:104EF000092AACF1410C05D9BCF1190F02D9BEF158
:104F00005F0F14D19845ECD12278164BD35C13F087
:104F1000040313D1FF281CD818462B600CE0012392
:104F20002B607EB1002318463360BDE8F081022378
:104F30002B603EB100203760BDE8F08103232B6079
:104F4000002EEFD10020BDE8F0810B2070470B2030
:104F5000F2E704222A60002EF4D0FE2218463260C6
:104F6000EAE700BFBDF20108B0B3AAB369B300F12C
:104F7000FF3C2DE9F0414E1EC0F10107064407EB4E
:104F80000C081CF8014FA4F1300524F0200E092D67
:104F9000AEF1410E04D9BEF1190F01D95F2C0CD12D
:104FA0006645ECD104781848205C10F004041AD14E
:104FB000FF2921D82046146005E0022111607BB151
:104FC0000020C3F80080BDE8F081012111602BB101
:104FD000002210461A6070470B207047002070476F
:104FE0000020BDE8F08103211160002BF8D00022E1
:104FF00010461A60BDE8F08104211160002BEFD04B
:10500000FE2220461A60DEE7BDF20108042803D81C
:10501000024B53F8200070470148704770F20108B6
:10502000E8FE01084068003818BF0120704700BF43
:105030000346406858B142685A600AB100211160C5
:105040001A68426002B11060002202601860704766
:105050000B680BB14A685A604A6802B11360036872
:105060008B42436808BF02604B6003B119600023A4
:105070000B604160704700BF014B1868704700BF6C
:1050800088F2010884B0F0B583B009AD85E80E0060
:1050900030B104462846FBF7E5FD08B1A6682EB1FD
:1050A0000B2003B0BDE8F04004B07047002200239D
:1050B00004F1200CDFF898E06F46C4E90023204B90
:1050C0001B68A3600FCDACE80F002B683846CCF806
:1050D0000030C4F81CE0E660FFF7F6FB04F11003B3
:1050E000032297E8030083E8030016481649267652
:1050F000FCF73AF91348FFF79BFFF0B1134A8368B6
:105100005168636310785961D1681874D961116965
:1051100019625169926859629A6116F0EDFD02F0C8
:105120000BFE02F011FE636B98620028F9D000209C
:1051300003B0BDE8F04004B070470120B1E700BF04
:1051400088F201083C0E0020B80D00200C0C002055
:105150004CF80108002847D070B50D4649B1044607
:10516000806820B1224B196803F00EFAA8BBAB6827
:105170001BB14FF00B0C604670BD23462A4604F16C
:105180003006D3F800E0103353F80CCC103253F84B
:10519000080C53F8041CB34242F810EC42F80CCC53
:1051A00042F8080C42F8041CEBD119685B681148FE
:1051B00011605360FFF73CFF98B183684FF0000C1B
:1051C0006B63656B03F1100410350FCD0FC495E8C8
:1051D000070084E80700604670BD4FF00C0C604685
:1051E00070BD4FF0010CC6E74FF00B0C60467047E6
:1051F00088F201083C0E002010B58EB088B304463A
:105200002030FBF72FFD60B3A06820B11A4B19685E
:1052100003F0BAF968BB194B196831B3626B01E04E
:10522000496811B38B689A42FAD11448FFF710FF0E
:105230006846FFF735FBEE46A4460024BEE80F00A3
:10524000ACE80F00BEE80F00ACE80F00BEE80F00AE
:10525000ACE80F009EE803008CE8030020460EB087
:1052600010BD0B2420460EB010BD012420460EB008
:1052700010BD0C24F2E700BF88F201083C0E0020AC
:105280002DE9F04383B0002800F0D3800E460029BA
:1052900000F0CF80436B0546002B00F0CA80784BAE
:1052A00080681F6828B1394603F06EF9002840F085
:1052B000CA80744C4FF0000873497448D5E9002344
:1052C000B760C6E90023EB680122B364FBF7ECFF8B
:1052D000204604226E49FCF727F86C4884F80D80BC
:1052E000FFF7A6FE002800F0A9808468686B04F12F
:1052F0001009416A90F810C0D0E906230191614677
:10530000006A0090484618F08DF94FF47A7204F55F
:10531000805360496048C4E9E32204F55E72C4E941
:10532000E122C3F894850122C3F89885C3F89C85CF
:10533000C3F8A085C4E9DA78F464FBF795FF052289
:1053400056495748FBF770FF0A2256495648FBF763
:105350004BFF012255495648FBF706FF01225549EC
:105360005548FBF721FF0F2254495548FBF7BCFF76
:10537000032254495448FBF7F7FF04225349544889
:10538000FCF712F8534954480422FCF72DF8424622
:10539000696BF06C00F0B0FD0746002858D16B6BCC
:1053A00004F5287504F522719A6A284615F0CCFA9E
:1053B00022464A49284615F0EBFA3A46484928461B
:1053C00015F0E2FA3A464749284615F0E5FA3A461A
:1053D0004549284615F0E4FAB4F89822042304F568
:1053E00065719200284615F01BFBB4F8982204233F
:1053F00004F694319200C4F87403284615F0E6FAD6
:10540000C4F87803284615F005FB41F29431C4F83E
:10541000800328462144B4F8982215F0C5FAC4F850
:105420007C03284616F07CF8F8B1384603B0BDE896
:10543000F0830B27384603B0BDE8F08301273846D8
:1054400003B0BDE8F0830C27384603B0BDE8F08315
:10545000484618F025F921460C48FFF7F9FD384673
:10546000C6F84C8003B0BDE8F083484618F018F940
:1054700021460648FFF7ECFDF7640127D5E700BF9A
:1054800088F20108980C0020D83F0020280C00204A
:10549000500E0020303F0020380C002088320020C1
:1054A000580C0020C0360020480C0020C0310020DD
:1054B000680C0020F8300020780C0020502F0020CD
:1054C000880C0020B80D00203C0E0020380D002074
:1054D000A80D0020A80C0020280D0020716B0008EA
:1054E000696B0008096C0008A56C000870B594B0E1
:1054F000002850D00546806828B12B4B196803F06E
:1055000043F8002843D1294BE96C1C68002C46D095
:105510000026D4E9014002698A4224D0002CF8D147
:1055200089B1D1F8883301F528709B78012B14BF1D
:105530000A21002115F0CCFFE86CFBF775FFE86C41
:10554000103018F0ADF80023EB64B6B1184D2C689C
:1055500034B1214664682846FFF77AFD002CF8D163
:10556000304614B070BD183000F088F9E96C06467A
:10557000002CCED10029D4D1E5E768460026FFF7FC
:105580007BF950226946284602F0C2FADEE70C2673
:10559000304614B070BD0B26304614B070BD0029E3
:1055A000EBD02646BDE700BF88F20108380C00208A
:1055B000980C0020174BC16C70B51C68054634B3BD
:1055C0000026D4E9014002698A4218D0002CF8D1A3
:1055D00089B1D1F8883301F528709B78012B14BF6D
:1055E0000A21002115F074FFE86CFBF71DFFE86C41
:1055F000103018F055F800233046EB6470BD1830B9
:1056000000F03CF9E96C0646002CDAD1E0E72646CA
:10561000DEE700BF380C00202DE9F041054684B0DC
:1056200023480F461646FFF703FD044600283AD0EC
:105630002B690221846803F58053DFF87880B3F882
:105640009605421CC4E90565A3F8962515F0BCF83B
:105650003C22206141463846FCF758FAF8B108F17F
:105660003C07304664223946FCF722FAB8B1286973
:1056700006216B69D0F8842300F52870CDF80080EE
:10568000CDE901711168226914F0A6FE024628696D
:10569000D0F88C33D0F88413FCF75EF818B92046A4
:1056A0000024FBF737FF204604B0BDE8F08100BFBF
:1056B000880C00209457002038B58569DDB1044678
:1056C0002869D0F8883300F528702269196814F029
:1056D00005FE02462869D0F88813D0F89033FCF70D
:1056E0003BF803462046002B14BF00240224FBF79E
:1056F00011FF204638BD0124204638BD144B1B68DD
:1057000013B34FF0000CD3E90132D2F88010884275
:1057100012D0002BF7D10F4B1B685BB1D3E90132DC
:10572000116A8842F9D1D269002AF6D00CF1010C35
:10573000002BF3D160467047526A002AE9D00CF181
:10574000010C002BDFD1E6E79C46024B1B68E4E727
:10575000480C0020580C00202DE9F04383B0002BAA
:1057600064D0064638480F4690461D46FFF760FC59
:1057700000285BD08468EB6C04F12C0904F1180557
:105780002361FFF779FCC4F82090C4E90604304691
:1057900003F0D6F8421C3C2A40D8484604F1680978
:1057A000314602F0B5F93846C4F8249003F0C8F841
:1057B000421C3C2A32D83946484602F0A9F92369EE
:1057C000012103F58053B3F894054218A3F89425FA
:1057D00014F0FAFF60613B782F2B2CD17B7853BB00
:1057E00033461A4A3C211A4802F01AFE2069062163
:1057F0001FFA88F3D0F8842300F52870019114492A
:1058000000911168626914F0B5FD02462069D0F874
:105810008C33D0F88413FBF79FFF18B92846002576
:10582000FBF708FE284603B0BDE8F08300252846B4
:1058300003B0BDE8F0833B46064A3C21009604488D
:1058400002F0EEFDD2E700BF380C0020B8F60108E8
:105850003458002054F801088C461146BCF1000F62
:105860000AD09CF800303BB132B1137823B1034623
:10587000826C6046FFF770BF00207047F8B528B310
:105880000746006820B1374B196802F07DFEE8B981
:105890007D68DDB1344B1C68002C60D00026D4E953
:1058A0000141D1F880309D4213D0002CF7D12F4B0D
:1058B0001C68C4B1D4E901410B6A9D42F9D17C3125
:1058C000384600F0B3FA01280646F2D101263046E8
:1058D000F8BD84313846FBF7F3FB01280646F5D0C6
:1058E000002CDCD1E3E7224B1C686CB1D4E9014108
:1058F0008B6F9D42F9D17C31384600F01BF90128AD
:105900000646E3D0002CF1D11A4B1C686CB1D4E9E7
:1059100001418B6F9D42F9D17C31384601F0E2FAAA
:1059200001280646D2D0002CF1D128696A69D0F846
:10593000883300F52870196814F0D0FC02462869F5
:10594000D0F88813D0F89033FBF706FF03463846AB
:10595000002B08BF0226FBF76DFD3046F8BD26463A
:10596000A5E700BF88F20108480C0020580C002071
:10597000680C0020780C00200320704743681869E9
:1059800000F55A70704700BF2DE9F04F91B0002923
:1059900000F0BD800646002800F0B980144600687B
:1059A00089461D46FCF7D2FA002C00F0B08080F04A
:1059B0000100C0B2002840F0AA802378002B00F03C
:1059C000A680002D00F0A3805748D6F80480FFF78A
:1059D0002FFB0646002800F09B80876807F1880AA5
:1059E000C7F88070FFF748FBF867C7F884A0204627
:1059F00002F0A6FF421C07F17C063C2A00F28C80D4
:105A00002146504602F084F84FF47A73294650221A
:105A100007F12000C7F878807B6702F079F84846E4
:105A2000424900F0B9FA002876D043687B61002B28
:105A300072D0D8F810300821DFF8F49003F58053C5
:105A400009F1640AB3F8A205421CA3F8A22514F0D8
:105A5000BBFE642338614A4651467869FBF7F0FE85
:105A6000002859D009F5827B09F1C8023C23204661
:105A70005946FBF7B5FE00284ED0D8F810300CA8D8
:105A80002946D3F88423CDE90823FBF781FE09F1E9
:105A9000C8020CA80094099BCDE903B2CDE901A985
:105AA00003C8089A059003F528700623ADF818106E
:105AB00007931168D8F814303A6914F04BFE024687
:105AC000D8F81000D0F88C33D0F88413FBF744FEDC
:105AD00010B32B7A4FF6FF72D8F81000022B0E92FB
